:1000000084EF05F00000000000EF00F000000000A9
:0A0010000000000000000000F3D71C
:10001C000F0E0C6E470E0D6E0D2EFED70C2EFCD750
:06002C00000000001200BC
:0A003200210E0D6E0D2EFED71200F8
:06003C00000000001200AC
:10004200086A096A100E0C6E01340836093604502B
:10005200085E0550D8A0053C095ED8B007D0045010
:1000620008260550D8B0053C0926D890003601363E
:060072000C2EEAD712007B
:1000780000018DBF02D0839E01D0838E8DBD02D03A
:10008800839C01D0838C8DBB02D0839A01D0838A54
:100098008DB902D0839801D083885DB002D0848462
:1000A80001D084948482C6DF84928DB702D0839E67
:1000B80001D0838E8DB502D0839C01D0838C8DB303
:1000C80002D0839A01D0838A8DB102D0839801D05F
:1000D80083885DB002D0848401D084948482AADFAE
:0E00E80084925DA002D096DF01D09FDF12004F
:1000F60000018A6B050E8A5D0AE28A518825E16E47
:10010600000E8921E26E200EE66E8A2BF3D78A5105
:100116008825E16E000E8921E26EE66A8A078A5119
:1001260088258B6F000E89218C6F0A0E046E000ED7
:10013600056E86C000F087C001F080DF08C000F0C1
:1001460009C001F0300E00268BC0E1FF8CC0E2FF33
:1001560000C0E6FF0A0E046E000E056E86C000F0B3
:1001660087C001F06BDF00C086F001C087F0000E8B
:10017600011802E1000E001801E102D08A07CFD76C
:02018600120065
:0C0188005D9086C08DF074DF5D80120079
:1001940010D0800E00017C6F1AD0C00E7C6F17D077
:1001A400940E7C6F14D0D40E7C6F11D0800E7C6FB3
:1001B4000ED000017C51010AECE07C51020AEDE012
:1001C4007C51030AEDE07C51040AEDE0EFD77D0594
:1001D400006E7C51002600C07CF000C08DF04ADF28
:1001E4005D90806B80517E25E96E000E7F21EA6E62
:1001F400EE520BE080517E25E96E000E7F21EA6EFF
:0E020400EECF86F0BFDF802BEDD75D801200BD
:080212000AAE029E000E12006C
:10021A000001826B836B7CC084F07DC085F0800E08
:10022A007D19006E800E005C02E1000E7C5D0BE21F
:10023A00010E826F000E836F7C510008846F7DC0AF
:10024A0085F0000E855784C086F085C087F07EC091
:10025A0088F07FC089F04ADF060E806F000E816F3A
:10026A00000E006E8151005C02E18051000819E223
:10027A0080517E25E16E81517F21E26E010E805D03
:10028A00006E000E8159016E00507E25E96E015004
:10029A007F21EA6EEECFE6FF010E805F000E815BE2
:1002AA00DFD77EC0E1FF7FC0E2FF200EE66E8251FB
:1002BA0083111AE0806B816B80517E25E96E815132
:1002CA007F21EA6EEE50200A03E1804B812BF4D79E
:1002DA00010E805F000E815B80517E25E16E8151A7
:0A02EA007F21E26E2D0EE66E120079
:1002F4000B840BAE85EF01F0010E036E026A016AF6
:0A030400006A0A360232FF0E1200F2
:0E030E00026A016A006A086A036A000E1200A1
:10031C00A69C7CC0A9FFA69EA680A8CF00F01200C8
:10032C00020E0C6E490E0D6E0D2EFED70C2EFCD748
:06033C00000000001200A9
:100342000B6A0A6A096A00500402F4CF09F0F3CF7B
:1003520008F001500502F4CF0BF0F3CF0AF0005081
:100362000502F3500926F4500A22E86A0B220150D2
:100372000402F3500926F4500A22E86A0B2208C04C
:1003820000F009C001F00AC002F00BC003F0120035
:100392000B800BAED5EF01F0026A0AAEFF0E026EC1
:0C03A200016E006E0A360232FF0E1200DF
:0C03AE000E0E0D6E0D2EFED7000012008A
:1003BA00010E00017C6FADDF0050000A0AE1020E57
:1003CA007C6F090E7D6F4D0E7E6F000E7F6FDDDE36
:1003DA0009D0020E7C6F090E7D6F460E7E6F000EED
:0603EA007F6FD3DE12005C
:1003F0000C6A0E6A0250D8A411EF02F001C002F09C
:1004000000C001F0006A0E860250D8A411EF02F07D
:1004100001C002F0016A0E960E880250D8B423EF94
:1004200002F00E50035ED8A4D8A028EF02F0D890B6
:1004300002BE2DEF02F0003601360236032E18EF11
:1004400002F028EF02F0010E0C6E61DF30EF02F0D7
:10045000020E0C6E4FDF30EF02F0040E0C6ED9DE90
:02046000120088
:1004620015C07CF016C07DF0530E00017E6F000EA9
:100472007F6FD2DE020E7C6FFE0E7D6F530E7E6F9B
:10048200000E7F6F86DE020E7C6F050E7D6F190EE9
:0A0492007E6F000E7F6F7DDE12000A
:10049C00A6A202D00000FCD7A69C76C0A9FF77C00C
:1004AC00A8FFA69EA684F2CF00F0F29E550EA76E72
:1004BC00AA0EA76EA68200BE02D0F29E01D0F28ECA
:0404CC00A6941200E0
:1004D000010E00018D6FD0DD0C0E8D6FCDDD000E95
:1004E0004C1802E1000E4B181DE1010E7C6F010E4D
:1004F0007D6F2B0E7E6F000E7F6F4CDE020E7C6FC9
:10050000010E7D6F230E7E6F000E7F6F43DE55DF81
:1005100049C07CF00F0E7D6F430E7E6F000E7F6F23
:1005200039DE10D0000E4C1802E1010E4B180AE122
:10053000010E7C6F010E7D6F380E7E6F000E7F6F97
:0605400029DE8FDF12002E
:0A0546009494CA840C0EBD1212003A
:1005500000017B6B78C001F0010E006E015004E0D9
:1005600000360090FF0FFBD700C060F076C0E9FFB7
:1005700077C0EAFF0050EE14016E0152010ED8A4BC
:10058000000E006E7A51001A18E07951000804E25A
:10059000CDDECCDE7907F9D776C0E9FF77C0EAFF78
:1005A0006051EE14016E0152010ED8A4000E006ECF
:1005B0007A51001A02E0FF0E7B6F7BC000F0120040
:0805C000BE6ABD98BD9A12004D
:1005C800C26A070EC012C08E60C000F000360090EC
:1005D800003600900050C212C280E5DEC282C2A27C
:1005E80001D0FDD7C4CF01F0006AC3500012000E3D
:0605F8000112C290120086
:1005FE000050086E0150006E016A026A036A0B6AAF
:10060E000C6A960E036E0A6A00C001F008C000F074
:08061E00086A026AE6DE120020
:10062600CB50010F006E016A000E012260C004F07B
:10063600000E056E83DE060E026E00C004F001C0D9
:1006460005F0025005E005320432059EFF0FFAD789
:10065600040E016E04C000F0015004E00036009064
:10066600FF0FFBD7300E0014036E04C000F005C068
:1006760001F001320032019E01320032019E00C0BB
:0C068600BEFF0F0EBD160350BD12120087
:100692000B6A0C6A0A6A0350D8B47EEF03F00A9E12
:1006A200028E860E035E03BE5CEF03F0D8B45CEFED
:1006B20003F081EF03F0036C080E035CD8A06AEF2D
:1006C20003F0036E0236026A0350D8A4D89073EF87
:1006D20003F00350D8B473EF03F0D8900232032E24
:1006E2006EEF03F00BBC02A07EEF03F0D8A07EEF0A
:1006F20003F0022AD8B488EF03F0016A8DEF03F009
:100702000B800BAE91EF03F0016A91EF03F0010E43
:100712000C6E3EDE93EF03F0000E0C6E93EF03F0CF
:0A072200FF0E0C6E0250006E120074
:10072C00000E4C1802E1000E4B1842E1000E4A1864
:10073C0002E1020E491825E1810E0001766F0F0EC1
:10074C00776F786B640E796F7A6BFCDE005219E070
:10075C00000E521802E1000E51180BE10001010EBF
:10076C00516E000E526E010E766F010E776F90DE99
:10077C0007D0516A526A010E0001766F776B88DEE2
:10078C00A1DE000E4A1802E1010E491811E1000128
:10079C00810E766F0F0E776F786B640E796F7A6BB4
:1007AC00D1DE005205E0010E4B6E000E4C6E8ADE5F
:1007BC00000E4C1802E1010E4B1813E10001810EE2
:1007CC00766F0F0E776F786B640E796F7A6BBADE7B
:1007DC00005207E0010E496E000E4A6E4B6A4C6ADD
:0407EC0071DE1200A8
:1007F0000900F5CFE6FF0006FBE10106F9E1120072
:10080000000E4C1802E1000E4B180FE1000E4A18C2
:1008100002E1010E491805E1020E496E000E4A6E12
:1008200004D0010E496E000E4A6E000E4C1802E113
:10083000010E4B1818E1000E0001661902E1000ECE
:1008400065190AE1010E155E000E165A766B15C089
:1008500077F024DE06DE07D0154A162A766B15C01F
:0808600077F01CDEFEDD120042
:10086800969296949598959A959C959E8492849440
:10087800839E839C839A83980EEC00F00EEC00F024
:100888000EEC00F0838A838884821EEC00F0849248
:100898000EEC00F084821EEC00F084920EEC00F066
:1008A80084821EEC00F084920EEC00F0839884821F
:1008B8001EEC00F084920EEC00F084821EEC00F036
:1008C8008492839A838E84821EEC00F084920EECCC
:1008D80000F0839E838884821EEC00F084928398C3
:1008E80084821EEC00F084920EEC00F084821EECF0
:1008F80000F08492838884821EEC00F084920EECCF
:1009080000F0839884821EEC00F08492838E838C9E
:10091800838A838884821EEC00F084920EEC00F0B7
:040928005D801200DC
:10092C0000C008F00150006E016A026A036A0B6A8B
:10093C000C6A016A026A036A960E036E0A6A00AEBA
:10094C00AEEF04F0081E001E082AD8B4002A0A8E46
:10095C0000C001F008C000F0086A026A43DD120012
:10096C003F0E0001696F060E6A6F5B0E6B6F4F0EC8
:10097C006C6F660E6D6F6D0E6E6F7D0E6F6F070E6A
:10098C00706F7F0E716F6F0E726F210E736F030E8F
:10099C00746F400E756F690E6525E96E000E662149
:1009AC00EA6EEECF83FF8086060E0C6E300E0D6E57
:1009BC000D2EFED70C2EFCD700008096690E6725F5
:1009CC00E96E000E6821EA6EEECF83FF8088060E7A
:1009DC000C6E300E0D6E0D2EFED70C2EFCD70000BB
:0409EC0080981200DD
:1009F0000A6A0350D8A40A800750D8A40A820A5071
:100A0000D8B45BEF05F0030AD8B414EF05F00AB0D0
:100A10000FEF05F006AE59EF05F057EF05F002AE07
:100A200057EF05F059EF05F00250800B0A6E029E59
:100A30000650800B069E0A18D8B425EF05F00A5020
:100A4000D8B457EF05F059EF05F00750035CD8B460
:100A50002FEF05F0D8A04BEF05F051EF05F0065051
:100A6000025CD8B439EF05F0D8A04BEF05F051EF98
:100A700005F00550015CD8B443EF05F0D8A04BEF6A
:100A800005F051EF05F00450005CD8B45BEF05F0C1
:100A9000D8B051EF05F00A52D8B459EF05F057EF2E
:100AA00005F00A52D8B457EF05F059EF05F0D88099
:0E0AB0001200D8901200D880D88412001200D4
:100ABE008282CA80CA92630ECB6E7BDD0001606BB0
:080ACE00ABDD3ADD848012006B
:100AD6008292CA80CA92630ECB6E6FDD0001606B94
:100AE60070DD8ADD00C061F001C062F002C063F013
:100AF60003C064F0CBDD00C060F092DD21DD8490A0
:020B06001200DB
:100B080084EC06F0936A956A949A9492966A010E18
:100B1800C26E0C0EC16EBE0EC06EA2DE9390939292
:100B2800939492969298D0DC828AD59AD596D58459
:100B3800D582D580D59CE10ED76E7B0ED66EF29409
:100B4800D58E9480949496907C6B8EEC01F000C0C6
:100B580015F0000E166E010E7C6F8EEC01F000C0D1
:100B680051F0000E526E00017C6B8EEC01F000C05B
:100B780015F0000E166E010E7C6F8EEC01F000C0B1
:100B880051F0000E526E810E766F0F0E776F050EC4
:100B9800786F640E796F7A6BD7DC005204E0656B6E
:100BA800666B2ADE91DC810E766F0F0E776F040E6E
:100BB800786F640E796F7A6BC7DC005206E0010E1D
:100BC800656F000E666F18DE7FDCACDDF2A449D0DD
:100BD800E10ED76E7B0ED66EF294020E0001606FA6
:100BE800EFDC00C017F001C018F000C05EF001C0D3
:100BF8005FF05F325E325F9E5EC017F05FC018F034
:100C08005EC000F05FC001F0F6DC00C01BF001C060
:100C18001CF002C01DF003C01EF00A0E046E000E88
:100C2800056E5EC000F05FC001F021EC00F008C066
:100C380000F009C001F000C01FF001C020F00A0E4A
:100C4800046E000E056E5EC000F05FC001F021EC7E
:100C580000F000C017F001C018F000C021F001C07A
:100C680022F021C065F022C066F01FC067F020C0E6
:100C780068F078DE15C000F016C001F053DE00C041
:100C880004F001C005F002C006F003C007F01BC065
:100C980000F01CC001F01DC002F01EC003F0A4DE6D
:100CA800000ED8B0010E006E005208E0000E521877
:100CB80002E1010E511802E10ADF01D0FCDE53D730
:020CC800FFD754
:100D080010EE15F03E0E006E010E016ECA0EF66E64
:0E0D18000C0EF76E000EF86EF8EC03F01200F1
:020CCA00170011
:020CCC00000026
:020CCE004300E1
:040CD0000000000020
:020CD4000C0012
:020CD6000C0010
:080CD800416C61726D653A0088
:0D0CE000536574617220416C61726D650096
:0B0CED0053656C6563696F6E653A002B
:030CF8003C2D0090
:030CFB004F6E0039
:020CFE000100F3
:020D00000000F1
:040D02004F666600D2
:020D06000100EA
:020000040030CA
:0E000000000C1F1EFF8381FF0FC00FE00F409A
:00000001FF
